{
  "abi": [
    {
      "type": "function",
      "name": "count",
      "inputs": [],
      "outputs": [
        {
          "name": "",
          "type": "uint256",
          "internalType": "uint256"
        }
      ],
      "stateMutability": "view"
    },
    {
      "type": "function",
      "name": "decrement",
      "inputs": [],
      "outputs": [],
      "stateMutability": "nonpayable"
    },
    {
      "type": "function",
      "name": "increment",
      "inputs": [],
      "outputs": [],
      "stateMutability": "nonpayable"
    },
    {
      "type": "function",
      "name": "number",
      "inputs": [],
      "outputs": [
        {
          "name": "",
          "type": "uint256",
          "internalType": "uint256"
        }
      ],
      "stateMutability": "view"
    },
    {
      "type": "function",
      "name": "setNumber",
      "inputs": [
        {
          "name": "newNumber",
          "type": "uint256",
          "internalType": "uint256"
        }
      ],
      "outputs": [],
      "stateMutability": "nonpayable"
    }
  ],
  "bytecode": {
    "object": "0x608060405234801561000f575f80fd5b5061014b8061001d5f395ff3fe608060405234801561000f575f80fd5b5060043610610055575f3560e01c806306661abd146100595780632baeceb71461006e5780633fb5c1cb146100785780638381f58a1461008a578063d09de08a14610092575b5f80fd5b5f545b60405190815260200160405180910390f35b61007661009a565b005b6100766100863660046100bd565b5f55565b61005c5f5481565b6100766100af565b5f805490806100a8836100e8565b9190505550565b5f805490806100a8836100fd565b5f602082840312156100cd575f80fd5b5035919050565b634e487b7160e01b5f52601160045260245ffd5b5f816100f6576100f66100d4565b505f190190565b5f6001820161010e5761010e6100d4565b506001019056fea2646970667358221220e94fb9f8ba1d5c415cc0ad39ff65220fa37dfe0176d24d4a205fa09c95f931e464736f6c63430008140033",
    "linkReferences": {}
  },
  "methodIdentifiers": {
    "count()": "06661abd",
    "decrement()": "2baeceb7",
    "increment()": "d09de08a",
    "number()": "8381f58a",
    "setNumber(uint256)": "3fb5c1cb"
  },
  "id": 16
}